{
  "fileName": "RootCAs.sol",
  "contractName": "RootCAs",
  "source": "pragma solidity >=0.5.0 <0.7.0;\npragma experimental ABIEncoderV2;\n\nimport \"./EndorserRole.sol\";\nimport \"./ProposerRole.sol\";\n\ncontract RootCAs is EndorserRole, ProposerRole {\n    enum State {Proposed, Endorsed, Revoked} // state enum for root CA\n\n    enum RevocationReason { // revocation reason enum based on RFC 5280 section 5.3.1 with the the addition of NotRevoked\n        Unspecified, KeyCompromise, CACompromise, AffiliationChanged, Superseded,\n        CessationOfOperation, CertificateHold, RemoveFromCRL, PrivilegeWithdrawn, AACompromise, NotRevoked\n    }\n\n    struct RootCA { // struct that contains the info of a root CA\n        uint id;\n        State state;\n        string caCert;\n        RevocationReason revocationReason;\n    }\n\n    struct Proposal { // struct that contains the proposals of addition or revocation of a root CA\n        State proposedState;\n        RootCA rootCA;\n        uint endorsements;\n        mapping(address => bool) endorsers;\n        address proposer;\n    }\n\n    struct ProposalSimple { // struct that contains a proposal without endorsements\n        State proposedState;\n        RootCA rootCA;\n    }\n\n    uint private numOfRootCAs; // the number of endorsed and revoked root CAs\n    RootCA[] private rootCAs; // array containing all endorsed and revoked root CAs\n\n    Proposal private additionProposal; // proposal for addition\n\n    Proposal private revocationProposal; // proposal for revocation\n\n    uint internal endorsementsNeeded; // the number of endorsements needed to add or revoke a CA\n\n    event RootCAsChanged(RootCA _rootCA); // event that is emitted when a root CA is added or revoked\n\n    event NewProposal(ProposalSimple _proposal); // event that is emitted when a new proposal has been made\n\n    address payable private owner; // the owner of this contract\n\n    constructor(uint _endorsementsNeeded) public {\n        endorsementsNeeded = _endorsementsNeeded;\n        owner = msg.sender;\n    }\n\n    modifier onlyOwner() {\n        require(msg.sender == owner, \"Only owner can do this!\");\n        _;\n    }\n\n    // Propose the addition of a new root CA\n    function proposeRootCAAddition(string memory _caCert) public onlyProposer {\n        require(additionProposal.proposedState == State.Proposed, \"An addition proposal already exists!\");\n        RootCA memory _rootCA = RootCA(0, State.Proposed, _caCert, RevocationReason.NotRevoked);\n        Proposal memory _proposal = Proposal({proposedState: State.Endorsed, rootCA: _rootCA, endorsements: 0, proposer: msg.sender});\n        additionProposal = _proposal;\n        resetEndorsements(additionProposal);\n        emit NewProposal(ProposalSimple(_proposal.proposedState, _rootCA));\n    }\n\n    // Endorse the latest root CA addition proposal\n    function endorseRootCAAddition() public onlyEndorser {\n        Proposal storage _proposal = additionProposal;\n        require(_proposal.proposedState == State.Endorsed, \"This function can only endorse additions!\");\n        require(!_proposal.endorsers[msg.sender], \"Endorser can only endorse once!\");\n        _proposal.endorsements++;\n        _proposal.endorsers[msg.sender] = true;\n        if (_proposal.endorsements >= endorsementsNeeded) {\n            RootCA memory _rootCA = _proposal.rootCA;\n            _rootCA.id = numOfRootCAs;\n            _rootCA.state = State.Endorsed;\n            rootCAs.push(_rootCA);\n            numOfRootCAs++;\n            delete additionProposal;\n            emit RootCAsChanged(_rootCA);\n        }\n    }\n\n    // Get the array of endorsed and revoked root CAs\n    function getRootCAs() public view returns(RootCA[] memory) {\n        return rootCAs;\n    }\n\n    // Propose revocation of root CA with given ID and reason\n    function proposeRevocation(uint _id, RevocationReason _reason) public onlyProposer {\n        require(revocationProposal.proposedState == State.Proposed, \"A revocation proposal already exists!\");\n        require(_id < numOfRootCAs, \"ID cannot be bigger than the number of root CAs\");\n        require(rootCAs[_id].state != State.Revoked, \"An already revoked root CA cannot be revoked again\");\n\n        RootCA memory _rootCA = rootCAs[_id];\n        _rootCA.state = State.Revoked;\n        _rootCA.revocationReason = _reason;\n        Proposal memory _proposal = Proposal({proposedState: State.Revoked, rootCA: _rootCA, endorsements: 0, proposer: msg.sender});\n        revocationProposal = _proposal;\n        resetEndorsements(revocationProposal);\n        emit NewProposal(ProposalSimple(_proposal.proposedState, _rootCA));\n    }\n\n    // Endorse the latest root CA revocation proposal\n    function endorseRevocation() public onlyEndorser {\n        Proposal storage _proposal = revocationProposal;\n        require(!_proposal.endorsers[msg.sender], \"Endorser can only endorse once!\");\n\n        _proposal.endorsements++;\n        _proposal.endorsers[msg.sender] = true;\n\n        if (_proposal.endorsements >= endorsementsNeeded) {\n            RootCA memory _revokedCA = _proposal.rootCA;\n            rootCAs[_revokedCA.id] = _revokedCA;\n            delete revocationProposal;\n            emit RootCAsChanged(_revokedCA);\n        }\n    }\n\n    // Get the current root CA addition proposal\n    function getAdditionProposal() public view returns(ProposalSimple memory) {\n        return ProposalSimple(additionProposal.proposedState, additionProposal.rootCA);\n    }\n\n    // Get the current root CA revocation proposal\n    function getRevocationProposal() public view returns(ProposalSimple memory) {\n        return ProposalSimple(revocationProposal.proposedState, revocationProposal.rootCA);\n    }\n\n    // Change the number of endorsements needed to add or revoke a root CA\n    function changeEndorsementsNeeded(uint _endorsementsNeeded) public onlyOwner {\n        endorsementsNeeded = _endorsementsNeeded;\n    }\n\n    // Change the owner of this contract\n    function changeOwner(address payable _newOwner) public onlyOwner {\n        owner = _newOwner;\n    }\n\n    // Delete the latest root CA addition proposal\n    function deleteLatestAdditionProposal() public onlyProposer {\n        delete additionProposal;\n    }\n\n    // Delete the latest root CA revocation proposal\n    function deleteLatestRevocationProposal() public onlyProposer {\n        delete revocationProposal;\n    }\n\n    // Reset the endorsements of a given proposal\n    function resetEndorsements(Proposal storage _proposal) internal {\n        (uint len, address[] memory _endorsers) = getEndorsers();\n        for (uint i = 0; i < len; i++) {\n            address _endorser = _endorsers[i];\n            _proposal.endorsers[_endorser] = false;\n        }\n    }\n\n    // Destroy this contract\n    function destroy() public onlyOwner {\n        selfdestruct(owner);\n    }\n}\n",
  "sourcePath": "contracts/RootCAs.sol",
  "abi": [
    {
      "inputs": [
        {
          "internalType": "uint256",
          "name": "_endorsementsNeeded",
          "type": "uint256"
        }
      ],
      "stateMutability": "nonpayable",
      "type": "constructor"
    },
    {
      "anonymous": false,
      "inputs": [
        {
          "components": [
            {
              "internalType": "enum RootCAs.State",
              "name": "proposedState",
              "type": "uint8"
            },
            {
              "components": [
                {
                  "internalType": "uint256",
                  "name": "id",
                  "type": "uint256"
                },
                {
                  "internalType": "enum RootCAs.State",
                  "name": "state",
                  "type": "uint8"
                },
                {
                  "internalType": "string",
                  "name": "caCert",
                  "type": "string"
                },
                {
                  "internalType": "enum RootCAs.RevocationReason",
                  "name": "revocationReason",
                  "type": "uint8"
                }
              ],
              "internalType": "struct RootCAs.RootCA",
              "name": "rootCA",
              "type": "tuple"
            }
          ],
          "indexed": false,
          "internalType": "struct RootCAs.ProposalSimple",
          "name": "_proposal",
          "type": "tuple"
        }
      ],
      "name": "NewProposal",
      "type": "event"
    },
    {
      "anonymous": false,
      "inputs": [
        {
          "components": [
            {
              "internalType": "uint256",
              "name": "id",
              "type": "uint256"
            },
            {
              "internalType": "enum RootCAs.State",
              "name": "state",
              "type": "uint8"
            },
            {
              "internalType": "string",
              "name": "caCert",
              "type": "string"
            },
            {
              "internalType": "enum RootCAs.RevocationReason",
              "name": "revocationReason",
              "type": "uint8"
            }
          ],
          "indexed": false,
          "internalType": "struct RootCAs.RootCA",
          "name": "_rootCA",
          "type": "tuple"
        }
      ],
      "name": "RootCAsChanged",
      "type": "event"
    },
    {
      "inputs": [
        {
          "internalType": "address",
          "name": "account",
          "type": "address"
        }
      ],
      "name": "addEndorser",
      "outputs": [],
      "stateMutability": "nonpayable",
      "type": "function"
    },
    {
      "inputs": [
        {
          "internalType": "address",
          "name": "account",
          "type": "address"
        }
      ],
      "name": "addProposer",
      "outputs": [],
      "stateMutability": "nonpayable",
      "type": "function"
    },
    {
      "inputs": [
        {
          "internalType": "uint256",
          "name": "_endorsementsNeeded",
          "type": "uint256"
        }
      ],
      "name": "changeEndorsementsNeeded",
      "outputs": [],
      "stateMutability": "nonpayable",
      "type": "function"
    },
    {
      "inputs": [
        {
          "internalType": "address payable",
          "name": "_newOwner",
          "type": "address"
        }
      ],
      "name": "changeOwner",
      "outputs": [],
      "stateMutability": "nonpayable",
      "type": "function"
    },
    {
      "inputs": [],
      "name": "deleteLatestAdditionProposal",
      "outputs": [],
      "stateMutability": "nonpayable",
      "type": "function"
    },
    {
      "inputs": [],
      "name": "deleteLatestRevocationProposal",
      "outputs": [],
      "stateMutability": "nonpayable",
      "type": "function"
    },
    {
      "inputs": [],
      "name": "destroy",
      "outputs": [],
      "stateMutability": "nonpayable",
      "type": "function"
    },
    {
      "inputs": [],
      "name": "endorseRevocation",
      "outputs": [],
      "stateMutability": "nonpayable",
      "type": "function"
    },
    {
      "inputs": [],
      "name": "endorseRootCAAddition",
      "outputs": [],
      "stateMutability": "nonpayable",
      "type": "function"
    },
    {
      "inputs": [],
      "name": "getAdditionProposal",
      "outputs": [
        {
          "components": [
            {
              "internalType": "enum RootCAs.State",
              "name": "proposedState",
              "type": "uint8"
            },
            {
              "components": [
                {
                  "internalType": "uint256",
                  "name": "id",
                  "type": "uint256"
                },
                {
                  "internalType": "enum RootCAs.State",
                  "name": "state",
                  "type": "uint8"
                },
                {
                  "internalType": "string",
                  "name": "caCert",
                  "type": "string"
                },
                {
                  "internalType": "enum RootCAs.RevocationReason",
                  "name": "revocationReason",
                  "type": "uint8"
                }
              ],
              "internalType": "struct RootCAs.RootCA",
              "name": "rootCA",
              "type": "tuple"
            }
          ],
          "internalType": "struct RootCAs.ProposalSimple",
          "name": "",
          "type": "tuple"
        }
      ],
      "stateMutability": "view",
      "type": "function"
    },
    {
      "inputs": [],
      "name": "getCurrentEndorsers",
      "outputs": [
        {
          "internalType": "uint256",
          "name": "",
          "type": "uint256"
        },
        {
          "internalType": "address[]",
          "name": "",
          "type": "address[]"
        }
      ],
      "stateMutability": "view",
      "type": "function"
    },
    {
      "inputs": [],
      "name": "getCurrentProposers",
      "outputs": [
        {
          "internalType": "uint256",
          "name": "",
          "type": "uint256"
        },
        {
          "internalType": "address[]",
          "name": "",
          "type": "address[]"
        }
      ],
      "stateMutability": "view",
      "type": "function"
    },
    {
      "inputs": [],
      "name": "getEndorsers",
      "outputs": [
        {
          "internalType": "uint256",
          "name": "",
          "type": "uint256"
        },
        {
          "internalType": "address[]",
          "name": "",
          "type": "address[]"
        }
      ],
      "stateMutability": "view",
      "type": "function"
    },
    {
      "inputs": [],
      "name": "getProposers",
      "outputs": [
        {
          "internalType": "uint256",
          "name": "",
          "type": "uint256"
        },
        {
          "internalType": "address[]",
          "name": "",
          "type": "address[]"
        }
      ],
      "stateMutability": "view",
      "type": "function"
    },
    {
      "inputs": [],
      "name": "getRevocationProposal",
      "outputs": [
        {
          "components": [
            {
              "internalType": "enum RootCAs.State",
              "name": "proposedState",
              "type": "uint8"
            },
            {
              "components": [
                {
                  "internalType": "uint256",
                  "name": "id",
                  "type": "uint256"
                },
                {
                  "internalType": "enum RootCAs.State",
                  "name": "state",
                  "type": "uint8"
                },
                {
                  "internalType": "string",
                  "name": "caCert",
                  "type": "string"
                },
                {
                  "internalType": "enum RootCAs.RevocationReason",
                  "name": "revocationReason",
                  "type": "uint8"
                }
              ],
              "internalType": "struct RootCAs.RootCA",
              "name": "rootCA",
              "type": "tuple"
            }
          ],
          "internalType": "struct RootCAs.ProposalSimple",
          "name": "",
          "type": "tuple"
        }
      ],
      "stateMutability": "view",
      "type": "function"
    },
    {
      "inputs": [],
      "name": "getRootCAs",
      "outputs": [
        {
          "components": [
            {
              "internalType": "uint256",
              "name": "id",
              "type": "uint256"
            },
            {
              "internalType": "enum RootCAs.State",
              "name": "state",
              "type": "uint8"
            },
            {
              "internalType": "string",
              "name": "caCert",
              "type": "string"
            },
            {
              "internalType": "enum RootCAs.RevocationReason",
              "name": "revocationReason",
              "type": "uint8"
            }
          ],
          "internalType": "struct RootCAs.RootCA[]",
          "name": "",
          "type": "tuple[]"
        }
      ],
      "stateMutability": "view",
      "type": "function"
    },
    {
      "inputs": [
        {
          "internalType": "address",
          "name": "account",
          "type": "address"
        }
      ],
      "name": "isEndorser",
      "outputs": [
        {
          "internalType": "bool",
          "name": "",
          "type": "bool"
        }
      ],
      "stateMutability": "view",
      "type": "function"
    },
    {
      "inputs": [
        {
          "internalType": "address",
          "name": "account",
          "type": "address"
        }
      ],
      "name": "isProposer",
      "outputs": [
        {
          "internalType": "bool",
          "name": "",
          "type": "bool"
        }
      ],
      "stateMutability": "view",
      "type": "function"
    },
    {
      "inputs": [
        {
          "internalType": "uint256",
          "name": "_id",
          "type": "uint256"
        },
        {
          "internalType": "enum RootCAs.RevocationReason",
          "name": "_reason",
          "type": "uint8"
        }
      ],
      "name": "proposeRevocation",
      "outputs": [],
      "stateMutability": "nonpayable",
      "type": "function"
    },
    {
      "inputs": [
        {
          "internalType": "string",
          "name": "_caCert",
          "type": "string"
        }
      ],
      "name": "proposeRootCAAddition",
      "outputs": [],
      "stateMutability": "nonpayable",
      "type": "function"
    },
    {
      "inputs": [
        {
          "internalType": "address",
          "name": "account",
          "type": "address"
        }
      ],
      "name": "removeEndorser",
      "outputs": [],
      "stateMutability": "nonpayable",
      "type": "function"
    },
    {
      "inputs": [
        {
          "internalType": "address",
          "name": "account",
          "type": "address"
        }
      ],
      "name": "removeProposer",
      "outputs": [],
      "stateMutability": "nonpayable",
      "type": "function"
    }
  ],
  "bytecode": "0x60806040523480156200001157600080fd5b50604051620035fe380380620035fe833981810160405262000037919081019062000279565b6200004833620000a860201b60201c565b6200005933620000c660201b60201c565b8060168190555033601760006101000a81548173ffffffffffffffffffffffffffffffffffffffff021916908373ffffffffffffffffffffffffffffffffffffffff16021790555050620003c8565b620000c3816000620000e460201b620022721790919060201c565b50565b620000e1816002620000e460201b620022721790919060201c565b50565b620000f682826200019760201b60201c565b1562000139576040517f08c379a000000000000000000000000000000000000000000000000000000000815260040162000130906200034f565b60405180910390fd5b60018260000160008373ffffffffffffffffffffffffffffffffffffffff1673ffffffffffffffffffffffffffffffffffffffff16815260200190815260200160002060006101000a81548160ff0219169083151502179055505050565b60008073ffffffffffffffffffffffffffffffffffffffff168273ffffffffffffffffffffffffffffffffffffffff1614156200020b576040517f08c379a0000000000000000000000000000000000000000000000000000000008152600401620002029062000371565b60405180910390fd5b8260000160008373ffffffffffffffffffffffffffffffffffffffff1673ffffffffffffffffffffffffffffffffffffffff16815260200190815260200160002060009054906101000a900460ff16905092915050565b6000815190506200027381620003ae565b92915050565b6000602082840312156200028c57600080fd5b60006200029c8482850162000262565b91505092915050565b6000620002b4601f8362000393565b91507f526f6c65733a206163636f756e7420616c72656164792068617320726f6c65006000830152602082019050919050565b6000620002f660228362000393565b91507f526f6c65733a206163636f756e7420697320746865207a65726f20616464726560008301527f73730000000000000000000000000000000000000000000000000000000000006020830152604082019050919050565b600060208201905081810360008301526200036a81620002a5565b9050919050565b600060208201905081810360008301526200038c81620002e7565b9050919050565b600082825260208201905092915050565b6000819050919050565b620003b981620003a4565b8114620003c557600080fd5b50565b61322680620003d86000396000f3fe608060405234801561001057600080fd5b50600436106101425760003560e01c8063a6f9dae1116100b8578063c253c25c1161007c578063c253c25c146102f2578063c7e9e08614610311578063d3c718b71461032f578063f8553ad91461034b578063fe50c60914610367578063feba42851461038557610142565b8063a6f9dae114610278578063b03cd41814610294578063b28fc55c146102b0578063b41fa302146102cc578063b5d48b8c146102d657610142565b8063728e3fdb1161010a578063728e3fdb146101d857806374ec29a0146101f657806374f5dd151461022657806383197ef014610245578063837986ae1461024f57806385e17b021461025957610142565b8063013d7444146101475780630916f3981461017757806309d632d3146101935780630f6a6fda146101af5780635e3e1c14146101ce575b600080fd5b610161600480360361015c91908101906125a5565b61038f565b60405161016e9190612d81565b60405180910390f35b610191600480360361018c9190810190612638565b6103ac565b005b6101ad60048036036101a891908101906125a5565b610446565b005b6101b76104a5565b6040516101c5929190612f62565b60405180910390f35b6101d66104bb565b005b6101e0610594565b6040516101ed9190612f1e565b60405180910390f35b610210600480360361020b91908101906125a5565b6106e8565b60405161021d9190612d81565b60405180910390f35b61022e610705565b60405161023c929190612f62565b60405180910390f35b61024d61071b565b005b6102576107e6565b005b6102616108bf565b60405161026f929190612f62565b60405180910390f35b610292600480360361028d91908101906125ce565b6108d5565b005b6102ae60048036036102a991908101906125a5565b6109a9565b005b6102ca60048036036102c591908101906125f7565b6109fd565b005b6102d4610cae565b005b6102f060048036036102eb9190810190612661565b611142565b005b6102fa6115f3565b604051610308929190612f62565b60405180910390f35b610319611609565b6040516103269190612d5f565b60405180910390f35b610349600480360361034491908101906125a5565b61176e565b005b610365600480360361036091908101906125a5565b6117c2565b005b61036f611821565b60405161037c9190612f1e565b60405180910390f35b61038d611975565b005b60006103a5826000611d5390919063ffffffff16565b9050919050565b601760009054906101000a900473ffffffffffffffffffffffffffffffffffffffff1673ffffffffffffffffffffffffffffffffffffffff163373ffffffffffffffffffffffffffffffffffffffff161461043c576040517f08c379a000000000000000000000000000000000000000000000000000000000815260040161043390612e5c565b60405180910390fd5b8060168190555050565b61044f336106e8565b61048e576040517f08c379a000000000000000000000000000000000000000000000000000000000815260040161048590612e3c565b60405180910390fd5b6104a2816002611e1b90919063ffffffff16565b50565b600060606104b36002611ec2565b915091509091565b6104c4336106e8565b610503576040517f08c379a00000000000000000000000000000000000000000000000000000000081526004016104fa90612e3c565b60405180910390fd5b600e600080820160006101000a81549060ff0219169055600182016000808201600090556001820160006101000a81549060ff021916905560028201600061054b919061231a565b6003820160006101000a81549060ff0219169055505060058201600090556007820160006101000a81549073ffffffffffffffffffffffffffffffffffffffff02191690555050565b61059c612362565b6040518060400160405280600660000160009054906101000a900460ff1660028111156105c557fe5b81526020016006600101604051806080016040529081600082015481526020016001820160009054906101000a900460ff16600281111561060257fe5b600281111561060d57fe5b8152602001600282018054600181600116156101000203166002900480601f0160208091040260200160405190810160405280929190818152602001828054600181600116156101000203166002900480156106aa5780601f1061067f576101008083540402835291602001916106aa565b820191906000526020600020905b81548152906001019060200180831161068d57829003601f168201915b505050505081526020016003820160009054906101000a900460ff16600a8111156106d157fe5b600a8111156106dc57fe5b81525050815250905090565b60006106fe826002611d5390919063ffffffff16565b9050919050565b600060606107136000611f63565b915091509091565b601760009054906101000a900473ffffffffffffffffffffffffffffffffffffffff1673ffffffffffffffffffffffffffffffffffffffff163373ffffffffffffffffffffffffffffffffffffffff16146107ab576040517f08c379a00000000000000000000000000000000000000000000000000000000081526004016107a290612e5c565b60405180910390fd5b601760009054906101000a900473ffffffffffffffffffffffffffffffffffffffff1673ffffffffffffffffffffffffffffffffffffffff16ff5b6107ef336106e8565b61082e576040517f08c379a000000000000000000000000000000000000000000000000000000000815260040161082590612e3c565b60405180910390fd5b6006600080820160006101000a81549060ff0219169055600182016000808201600090556001820160006101000a81549060ff0219169055600282016000610876919061231a565b6003820160006101000a81549060ff0219169055505060058201600090556007820160006101000a81549073ffffffffffffffffffffffffffffffffffffffff02191690555050565b600060606108cd6002611f63565b915091509091565b601760009054906101000a900473ffffffffffffffffffffffffffffffffffffffff1673ffffffffffffffffffffffffffffffffffffffff163373ffffffffffffffffffffffffffffffffffffffff1614610965576040517f08c379a000000000000000000000000000000000000000000000000000000000815260040161095c90612e5c565b60405180910390fd5b80601760006101000a81548173ffffffffffffffffffffffffffffffffffffffff021916908373ffffffffffffffffffffffffffffffffffffffff16021790555050565b6109b2336106e8565b6109f1576040517f08c379a00000000000000000000000000000000000000000000000000000000081526004016109e890612e3c565b60405180910390fd5b6109fa816121a0565b50565b610a06336106e8565b610a45576040517f08c379a0000000000000000000000000000000000000000000000000000000008152600401610a3c90612e3c565b60405180910390fd5b60006002811115610a5257fe5b600660000160009054906101000a900460ff166002811115610a7057fe5b14610ab0576040517f08c379a0000000000000000000000000000000000000000000000000000000008152600401610aa790612dfc565b60405180910390fd5b610ab861238d565b60405180608001604052806000815260200160006002811115610ad757fe5b8152602001838152602001600a80811115610aee57fe5b8152509050610afb6123cb565b604051806080016040528060016002811115610b1357fe5b8152602001838152602001600081526020013373ffffffffffffffffffffffffffffffffffffffff16815250905080600660008201518160000160006101000a81548160ff02191690836002811115610b6857fe5b02179055506020820151816001016000820151816000015560208201518160010160006101000a81548160ff02191690836002811115610ba457fe5b02179055506040820151816002019080519060200190610bc592919061241a565b5060608201518160030160006101000a81548160ff0219169083600a811115610bea57fe5b021790555050506040820151816005015560608201518160070160006101000a81548173ffffffffffffffffffffffffffffffffffffffff021916908373ffffffffffffffffffffffffffffffffffffffff160217905550905050610c4f60066121b7565b7fb3a6cc03fa971e278184028f2cd35d5d875a9c93489d7f55ce6a720dcacddc49604051806040016040528083600001516002811115610c8b57fe5b815260200184815250604051610ca19190612efc565b60405180910390a1505050565b610cb73361038f565b610cf6576040517f08c379a0000000000000000000000000000000000000000000000000000000008152600401610ced90612e3c565b60405180910390fd5b60006006905060016002811115610d0957fe5b8160000160009054906101000a900460ff166002811115610d2657fe5b14610d66576040517f08c379a0000000000000000000000000000000000000000000000000000000008152600401610d5d90612edc565b60405180910390fd5b8060060160003373ffffffffffffffffffffffffffffffffffffffff1673ffffffffffffffffffffffffffffffffffffffff16815260200190815260200160002060009054906101000a900460ff1615610df5576040517f08c379a0000000000000000000000000000000000000000000000000000000008152600401610dec90612ddc565b60405180910390fd5b806005016000815480929190600101919050555060018160060160003373ffffffffffffffffffffffffffffffffffffffff1673ffffffffffffffffffffffffffffffffffffffff16815260200190815260200160002060006101000a81548160ff02191690831515021790555060165481600501541061113f57610e7861238d565b81600101604051806080016040529081600082015481526020016001820160009054906101000a900460ff166002811115610eaf57fe5b6002811115610eba57fe5b8152602001600282018054600181600116156101000203166002900480601f016020809104026020016040519081016040528092919081815260200182805460018160011615610100020316600290048015610f575780601f10610f2c57610100808354040283529160200191610f57565b820191906000526020600020905b815481529060010190602001808311610f3a57829003601f168201915b505050505081526020016003820160009054906101000a900460ff16600a811115610f7e57fe5b600a811115610f8957fe5b815250509050600454816000018181525050600181602001906002811115610fad57fe5b90816002811115610fba57fe5b8152505060058190806001815401808255809150506001900390600052602060002090600402016000909190919091506000820151816000015560208201518160010160006101000a81548160ff0219169083600281111561101857fe5b0217905550604082015181600201908051906020019061103992919061241a565b5060608201518160030160006101000a81548160ff0219169083600a81111561105e57fe5b021790555050506004600081548092919060010191905055506006600080820160006101000a81549060ff0219169055600182016000808201600090556001820160006101000a81549060ff02191690556002820160006110bf919061231a565b6003820160006101000a81549060ff0219169055505060058201600090556007820160006101000a81549073ffffffffffffffffffffffffffffffffffffffff021916905550507f88907e7245593caaa376ba37a47d7fe9600d0aea44df574425dcc8f46dabd7e6816040516111359190612f40565b60405180910390a1505b50565b61114b336106e8565b61118a576040517f08c379a000000000000000000000000000000000000000000000000000000000815260040161118190612e3c565b60405180910390fd5b6000600281111561119757fe5b600e60000160009054906101000a900460ff1660028111156111b557fe5b146111f5576040517f08c379a00000000000000000000000000000000000000000000000000000000081526004016111ec90612d9c565b60405180910390fd5b6004548210611239576040517f08c379a000000000000000000000000000000000000000000000000000000000815260040161123090612e9c565b60405180910390fd5b60028081111561124557fe5b6005838154811061125257fe5b906000526020600020906004020160010160009054906101000a900460ff16600281111561127c57fe5b14156112bd576040517f08c379a00000000000000000000000000000000000000000000000000000000081526004016112b490612ebc565b60405180910390fd5b6112c561238d565b600583815481106112d257fe5b9060005260206000209060040201604051806080016040529081600082015481526020016001820160009054906101000a900460ff16600281111561131357fe5b600281111561131e57fe5b8152602001600282018054600181600116156101000203166002900480601f0160208091040260200160405190810160405280929190818152602001828054600181600116156101000203166002900480156113bb5780601f10611390576101008083540402835291602001916113bb565b820191906000526020600020905b81548152906001019060200180831161139e57829003601f168201915b505050505081526020016003820160009054906101000a900460ff16600a8111156113e257fe5b600a8111156113ed57fe5b81525050905060028160200190600281111561140557fe5b9081600281111561141257fe5b81525050818160600190600a81111561142757fe5b9081600a81111561143457fe5b815250506114406123cb565b604051806080016040528060028081111561145757fe5b8152602001838152602001600081526020013373ffffffffffffffffffffffffffffffffffffffff16815250905080600e60008201518160000160006101000a81548160ff021916908360028111156114ac57fe5b02179055506020820151816001016000820151816000015560208201518160010160006101000a81548160ff021916908360028111156114e857fe5b0217905550604082015181600201908051906020019061150992919061241a565b5060608201518160030160006101000a81548160ff0219169083600a81111561152e57fe5b021790555050506040820151816005015560608201518160070160006101000a81548173ffffffffffffffffffffffffffffffffffffffff021916908373ffffffffffffffffffffffffffffffffffffffff160217905550905050611593600e6121b7565b7fb3a6cc03fa971e278184028f2cd35d5d875a9c93489d7f55ce6a720dcacddc496040518060400160405280836000015160028111156115cf57fe5b8152602001848152506040516115e59190612efc565b60405180910390a150505050565b600060606116016000611ec2565b915091509091565b60606005805480602002602001604051908101604052809291908181526020016000905b828210156117655783829060005260206000209060040201604051806080016040529081600082015481526020016001820160009054906101000a900460ff16600281111561167857fe5b600281111561168357fe5b8152602001600282018054600181600116156101000203166002900480601f0160208091040260200160405190810160405280929190818152602001828054600181600116156101000203166002900480156117205780601f106116f557610100808354040283529160200191611720565b820191906000526020600020905b81548152906001019060200180831161170357829003601f168201915b505050505081526020016003820160009054906101000a900460ff16600a81111561174757fe5b600a81111561175257fe5b815250508152602001906001019061162d565b50505050905090565b6117773361038f565b6117b6576040517f08c379a00000000000000000000000000000000000000000000000000000000081526004016117ad90612e3c565b60405180910390fd5b6117bf8161225b565b50565b6117cb3361038f565b61180a576040517f08c379a000000000000000000000000000000000000000000000000000000000815260040161180190612e3c565b60405180910390fd5b61181e816000611e1b90919063ffffffff16565b50565b611829612362565b6040518060400160405280600e60000160009054906101000a900460ff16600281111561185257fe5b8152602001600e600101604051806080016040529081600082015481526020016001820160009054906101000a900460ff16600281111561188f57fe5b600281111561189a57fe5b8152602001600282018054600181600116156101000203166002900480601f0160208091040260200160405190810160405280929190818152602001828054600181600116156101000203166002900480156119375780601f1061190c57610100808354040283529160200191611937565b820191906000526020600020905b81548152906001019060200180831161191a57829003601f168201915b505050505081526020016003820160009054906101000a900460ff16600a81111561195e57fe5b600a81111561196957fe5b81525050815250905090565b61197e3361038f565b6119bd576040517f08c379a00000000000000000000000000000000000000000000000000000000081526004016119b490612e3c565b60405180910390fd5b6000600e90508060060160003373ffffffffffffffffffffffffffffffffffffffff1673ffffffffffffffffffffffffffffffffffffffff16815260200190815260200160002060009054906101000a900460ff1615611a52576040517f08c379a0000000000000000000000000000000000000000000000000000000008152600401611a4990612ddc565b60405180910390fd5b806005016000815480929190600101919050555060018160060160003373ffffffffffffffffffffffffffffffffffffffff1673ffffffffffffffffffffffffffffffffffffffff16815260200190815260200160002060006101000a81548160ff021916908315150217905550601654816005015410611d5057611ad561238d565b81600101604051806080016040529081600082015481526020016001820160009054906101000a900460ff166002811115611b0c57fe5b6002811115611b1757fe5b8152602001600282018054600181600116156101000203166002900480601f016020809104026020016040519081016040528092919081815260200182805460018160011615610100020316600290048015611bb45780601f10611b8957610100808354040283529160200191611bb4565b820191906000526020600020905b815481529060010190602001808311611b9757829003601f168201915b505050505081526020016003820160009054906101000a900460ff16600a811115611bdb57fe5b600a811115611be657fe5b815250509050806005826000015181548110611bfe57fe5b90600052602060002090600402016000820151816000015560208201518160010160006101000a81548160ff02191690836002811115611c3a57fe5b02179055506040820151816002019080519060200190611c5b92919061241a565b5060608201518160030160006101000a81548160ff0219169083600a811115611c8057fe5b0217905550905050600e600080820160006101000a81549060ff0219169055600182016000808201600090556001820160006101000a81549060ff0219169055600282016000611cd0919061231a565b6003820160006101000a81549060ff0219169055505060058201600090556007820160006101000a81549073ffffffffffffffffffffffffffffffffffffffff021916905550507f88907e7245593caaa376ba37a47d7fe9600d0aea44df574425dcc8f46dabd7e681604051611d469190612f40565b60405180910390a1505b50565b60008073ffffffffffffffffffffffffffffffffffffffff168273ffffffffffffffffffffffffffffffffffffffff161415611dc4576040517f08c379a0000000000000000000000000000000000000000000000000000000008152600401611dbb90612e7c565b60405180910390fd5b8260000160008373ffffffffffffffffffffffffffffffffffffffff1673ffffffffffffffffffffffffffffffffffffffff16815260200190815260200160002060009054906101000a900460ff16905092915050565b611e258282611d53565b611e64576040517f08c379a0000000000000000000000000000000000000000000000000000000008152600401611e5b90612e1c565b60405180910390fd5b60008260000160008373ffffffffffffffffffffffffffffffffffffffff1673ffffffffffffffffffffffffffffffffffffffff16815260200190815260200160002060006101000a81548160ff0219169083151502179055505050565b6000606082600101805490508360010180805480602002602001604051908101604052809291908181526020018280548015611f5357602002820191906000526020600020905b8160009054906101000a900473ffffffffffffffffffffffffffffffffffffffff1673ffffffffffffffffffffffffffffffffffffffff1681526020019060010190808311611f09575b5050505050905091509150915091565b60006060600080905060008090505b846001018054905081101561202457846000016000866001018381548110611f9657fe5b9060005260206000200160009054906101000a900473ffffffffffffffffffffffffffffffffffffffff1673ffffffffffffffffffffffffffffffffffffffff1673ffffffffffffffffffffffffffffffffffffffff16815260200190815260200160002060009054906101000a900460ff16156120175781806001019250505b8080600101915050611f72565b506060816040519080825280602002602001820160405280156120565781602001602082028038833980820191505090505b509050600080600090505b86600101805490508110156121915786600001600088600101838154811061208557fe5b9060005260206000200160009054906101000a900473ffffffffffffffffffffffffffffffffffffffff1673ffffffffffffffffffffffffffffffffffffffff1673ffffffffffffffffffffffffffffffffffffffff16815260200190815260200160002060009054906101000a900460ff16156121845786600101818154811061210c57fe5b9060005260206000200160009054906101000a900473ffffffffffffffffffffffffffffffffffffffff1683838060010194508151811061214957fe5b602002602001019073ffffffffffffffffffffffffffffffffffffffff16908173ffffffffffffffffffffffffffffffffffffffff16815250505b8080600101915050612061565b50828294509450505050915091565b6121b481600261227290919063ffffffff16565b50565b600060606121c36115f3565b9150915060008090505b828110156122555760008282815181106121e357fe5b6020026020010151905060008560060160008373ffffffffffffffffffffffffffffffffffffffff1673ffffffffffffffffffffffffffffffffffffffff16815260200190815260200160002060006101000a81548160ff0219169083151502179055505080806001019150506121cd565b50505050565b61226f81600061227290919063ffffffff16565b50565b61227c8282611d53565b156122bc576040517f08c379a00000000000000000000000000000000000000000000000000000000081526004016122b390612dbc565b60405180910390fd5b60018260000160008373ffffffffffffffffffffffffffffffffffffffff1673ffffffffffffffffffffffffffffffffffffffff16815260200190815260200160002060006101000a81548160ff0219169083151502179055505050565b50805460018160011615610100020316600290046000825580601f10612340575061235f565b601f01602090049060005260206000209081019061235e919061249a565b5b50565b60405180604001604052806000600281111561237a57fe5b81526020016123876124bf565b81525090565b604051806080016040528060008152602001600060028111156123ac57fe5b8152602001606081526020016000600a8111156123c557fe5b81525090565b6040518060800160405280600060028111156123e357fe5b81526020016123f06124bf565b815260200160008152602001600073ffffffffffffffffffffffffffffffffffffffff1681525090565b828054600181600116156101000203166002900490600052602060002090601f016020900481019282601f1061245b57805160ff1916838001178555612489565b82800160010185558215612489579182015b8281111561248857825182559160200191906001019061246d565b5b509050612496919061249a565b5090565b6124bc91905b808211156124b85760008160009055506001016124a0565b5090565b90565b604051806080016040528060008152602001600060028111156124de57fe5b8152602001606081526020016000600a8111156124f757fe5b81525090565b60008135905061250c8161319b565b92915050565b600081359050612521816131b2565b92915050565b600081359050612536816131c9565b92915050565b600082601f83011261254d57600080fd5b813561256061255b82612fbf565b612f92565b9150808252602083016020830185838301111561257c57600080fd5b61258783828461312e565b50505092915050565b60008135905061259f816131d9565b92915050565b6000602082840312156125b757600080fd5b60006125c5848285016124fd565b91505092915050565b6000602082840312156125e057600080fd5b60006125ee84828501612512565b91505092915050565b60006020828403121561260957600080fd5b600082013567ffffffffffffffff81111561262357600080fd5b61262f8482850161253c565b91505092915050565b60006020828403121561264a57600080fd5b600061265884828501612590565b91505092915050565b6000806040838503121561267457600080fd5b600061268285828601612590565b925050602061269385828601612527565b9150509250929050565b60006126a983836126c9565b60208301905092915050565b60006126c18383612cde565b905092915050565b6126d28161308a565b82525050565b60006126e38261300b565b6126ed8185613046565b93506126f883612feb565b8060005b83811015612729578151612710888261269d565b975061271b8361302c565b9250506001810190506126fc565b5085935050505092915050565b600061274182613016565b61274b8185613057565b93508360208202850161275d85612ffb565b8060005b85811015612799578484038952815161277a85826126b5565b945061278583613039565b925060208a01995050600181019050612761565b50829750879550505050505092915050565b6127b4816130ae565b82525050565b6127c38161310a565b82525050565b6127d28161311c565b82525050565b60006127e382613021565b6127ed8185613068565b93506127fd81856020860161313d565b61280681613170565b840191505092915050565b600061281e602583613079565b91507f41207265766f636174696f6e2070726f706f73616c20616c726561647920657860008301527f69737473210000000000000000000000000000000000000000000000000000006020830152604082019050919050565b6000612884601f83613079565b91507f526f6c65733a206163636f756e7420616c72656164792068617320726f6c65006000830152602082019050919050565b60006128c4601f83613079565b91507f456e646f727365722063616e206f6e6c7920656e646f727365206f6e636521006000830152602082019050919050565b6000612904602483613079565b91507f416e206164646974696f6e2070726f706f73616c20616c72656164792065786960008301527f73747321000000000000000000000000000000000000000000000000000000006020830152604082019050919050565b600061296a602183613079565b91507f526f6c65733a206163636f756e7420646f6573206e6f74206861766520726f6c60008301527f65000000000000000000000000000000000000000000000000000000000000006020830152604082019050919050565b60006129d0602783613079565b91507f43616c6c6572206e6565647320746f2068617665207468652070726f706f736560008301527f7220726f6c6521000000000000000000000000000000000000000000000000006020830152604082019050919050565b6000612a36601783613079565b91507f4f6e6c79206f776e65722063616e20646f2074686973210000000000000000006000830152602082019050919050565b6000612a76602283613079565b91507f526f6c65733a206163636f756e7420697320746865207a65726f20616464726560008301527f73730000000000000000000000000000000000000000000000000000000000006020830152604082019050919050565b6000612adc602f83613079565b91507f49442063616e6e6f7420626520626967676572207468616e20746865206e756d60008301527f626572206f6620726f6f742043417300000000000000000000000000000000006020830152604082019050919050565b6000612b42603283613079565b91507f416e20616c7265616479207265766f6b656420726f6f742043412063616e6e6f60008301527f74206265207265766f6b656420616761696e00000000000000000000000000006020830152604082019050919050565b6000612ba8602983613079565b91507f546869732066756e6374696f6e2063616e206f6e6c7920656e646f727365206160008301527f64646974696f6e732100000000000000000000000000000000000000000000006020830152604082019050919050565b6000604083016000830151612c1960008601826127c9565b5060208301518482036020860152612c318282612cde565b9150508091505092915050565b6000604083016000830151612c5660008601826127c9565b5060208301518482036020860152612c6e8282612cde565b9150508091505092915050565b6000608083016000830151612c936000860182612d41565b506020830151612ca660208601826127c9565b5060408301518482036040860152612cbe82826127d8565b9150506060830151612cd360608601826127ba565b508091505092915050565b6000608083016000830151612cf66000860182612d41565b506020830151612d0960208601826127c9565b5060408301518482036040860152612d2182826127d8565b9150506060830151612d3660608601826127ba565b508091505092915050565b612d4a81613100565b82525050565b612d5981613100565b82525050565b60006020820190508181036000830152612d798184612736565b905092915050565b6000602082019050612d9660008301846127ab565b92915050565b60006020820190508181036000830152612db581612811565b9050919050565b60006020820190508181036000830152612dd581612877565b9050919050565b60006020820190508181036000830152612df5816128b7565b9050919050565b60006020820190508181036000830152612e15816128f7565b9050919050565b60006020820190508181036000830152612e358161295d565b9050919050565b60006020820190508181036000830152612e55816129c3565b9050919050565b60006020820190508181036000830152612e7581612a29565b9050919050565b60006020820190508181036000830152612e9581612a69565b9050919050565b60006020820190508181036000830152612eb581612acf565b9050919050565b60006020820190508181036000830152612ed581612b35565b9050919050565b60006020820190508181036000830152612ef581612b9b565b9050919050565b60006020820190508181036000830152612f168184612c3e565b905092915050565b60006020820190508181036000830152612f388184612c01565b905092915050565b60006020820190508181036000830152612f5a8184612c7b565b905092915050565b6000604082019050612f776000830185612d50565b8181036020830152612f8981846126d8565b90509392505050565b6000604051905081810181811067ffffffffffffffff82111715612fb557600080fd5b8060405250919050565b600067ffffffffffffffff821115612fd657600080fd5b601f19601f8301169050602081019050919050565b6000819050602082019050919050565b6000819050602082019050919050565b600081519050919050565b600081519050919050565b600081519050919050565b6000602082019050919050565b6000602082019050919050565b600082825260208201905092915050565b600082825260208201905092915050565b600082825260208201905092915050565b600082825260208201905092915050565b6000613095826130e0565b9050919050565b60006130a7826130e0565b9050919050565b60008115159050919050565b60008190506130c882613181565b919050565b60008190506130db8261318e565b919050565b600073ffffffffffffffffffffffffffffffffffffffff82169050919050565b6000819050919050565b6000613115826130ba565b9050919050565b6000613127826130cd565b9050919050565b82818337600083830152505050565b60005b8381101561315b578082015181840152602081019050613140565b8381111561316a576000848401525b50505050565b6000601f19601f8301169050919050565b600b811061318b57fe5b50565b6003811061319857fe5b50565b6131a48161308a565b81146131af57600080fd5b50565b6131bb8161309c565b81146131c657600080fd5b50565b600b81106131d657600080fd5b50565b6131e281613100565b81146131ed57600080fd5b5056fea2646970667358221220a9ef916cefcda91de441e99039bffd0bffce77830267a09010aac582d3db235464736f6c63430006010033",
  "compiler": {
    "name": "solc",
    "version": "0.6.1+commit.e6f7d5a4.Linux.g++",
    "optimizer": {
      "enabled": false,
      "runs": 200
    },
    "evmVersion": "petersburg"
  }
}